:100000000C9435000C945D000C945D000C945D0024
:100010000C945D000C945D000C945D000C945D00EC
:100020000C945D000C945D000C945D000C945D00DC
:100030000C945D000C945D000C945D000C945D00CC
:100040000C9491010C945D000C9401020C94DB0162
:100050000C945D000C945D000C945D000C945D00AC
:100060000C945D000C945D00E20211241FBECFEFE2
:10007000D8E0DEBFCDBF11E0A0E0B1E0EEE2F6E0F7
:1000800002C005900D92A431B107D9F721E0A4E197
:10009000B1E001C01D92AA3BB207E1F710E0C5E351
:1000A000D0E004C02197FE010E940F03C433D107A2
:1000B000C9F70E9433020C9415030C9400003FB75B
:1000C000F8948091B6019091B701A091B801B091D8
:1000D000B90126B5A89B05C02F3F19F00196A11DB7
:1000E000B11D3FBFBA2FA92F982F8827BC01CD0182
:1000F000620F711D811D911D42E0660F771F881FE1
:10010000991F4A95D1F70895AF92BF92CF92DF928F
:10011000EF92FF920F931F93CF93DF936C017B01BC
:100120008B01040F151FEB015E01AE18BF08C0174D
:10013000D10759F06991D601ED91FC910190F081C0
:10014000E02DC6010995892B79F7C501DF91CF9183
:100150001F910F91FF90EF90DF90CF90BF90AF90E5
:100160000895FC01538D448D252F30E0842F90E0BD
:10017000821B930B541710F0CF96089501970895A2
:10018000FC01918D828D981761F0A28DAE0FBF2F6B
:10019000B11D5D968C91928D9F5F9F73928F90E0C1
:1001A00008958FEF9FEF0895FC01918D828D981730
:1001B00031F0828DE80FF11D858D90E008958FEF6D
:1001C0009FEF0895FC01918D228D892F90E0805C36
:1001D0009F4F821B91098F739927089584E191E0C5
:1001E0000E94E20021E0892B09F420E0822F08958B
:1001F00080E090E0892B29F00E94EE0081110C94A0
:1002000000000895FC01A48DA80FB92FB11DA35AB9
:10021000BF4F2C91848D90E001968F739927848F26
:10022000A689B7892C93A089B1898C918370806449
:100230008C93938D848D981306C00288F389E02DEA
:1002400080818F7D80830895EF92FF920F931F939B
:10025000CF93DF93EC0181E0888F9B8D8C8D981379
:100260001AC0E889F989808185FF15C09FB7F89485
:10027000EE89FF896083E889F989808183708064D1
:1002800080839FBF81E090E0DF91CF911F910F911C
:10029000FF90EF900895F62E0B8D10E00F5F1F4F2B
:1002A0000F731127E02E8C8D8E110CC00FB607FC3A
:1002B000FACFE889F989808185FFF5CFCE010E94C8
:1002C0000201F1CFEB8DEC0FFD2FF11DE35AFF4F33
:1002D000F0829FB7F8940B8FEA89FB898081806256
:1002E000CFCFCF93DF93EC01888D8823B9F0AA8913
:1002F000BB89E889F9898C9185FD03C0808186FDE1
:100300000DC00FB607FCF7CF8C9185FFF2CF80812F
:1003100085FFEDCFCE010E940201E9CFDF91CF91A1
:1003200008951F920F920FB60F9211242F933F93AF
:100330008F939F93AF93BF938091B2019091B3013C
:10034000A091B401B091B5013091B10123E0230F28
:100350002D3758F50196A11DB11D2093B101809351
:10036000B2019093B301A093B401B093B501809111
:10037000B6019091B701A091B801B091B901019671
:10038000A11DB11D8093B6019093B701A093B80150
:10039000B093B901BF91AF919F918F913F912F91F0
:1003A0000F900FBE0F901F90189526E8230F02960E
:1003B000A11DB11DD2CF1F920F920FB60F92112423
:1003C0002F933F934F935F936F937F938F939F935D
:1003D000AF93BF93EF93FF9384E191E00E940201FA
:1003E000FF91EF91BF91AF919F918F917F916F910D
:1003F0005F914F913F912F910F900FBE0F901F90E3
:1004000018951F920F920FB60F9211242F938F936E
:100410009F93EF93FF93E0912401F0912501808158
:10042000E0912A01F0912B0182FD1BC09081809107
:100430002D018F5F8F7320912E01821741F0E09183
:100440002D01F0E0EC5EFE4F958F80932D01FF9122
:10045000EF919F918F912F910F900FBE0F901F9052
:1004600018958081F4CF789484B5826084BD84B57A
:10047000816084BD85B5826085BD85B5816085BD9F
:1004800080916E00816080936E0010928100809157
:1004900081008260809381008091810081608093DF
:1004A0008100809180008160809380008091B10004
:1004B00084608093B1008091B00081608093B0002F
:1004C00080917A00846080937A0080917A008260C3
:1004D00080937A0080917A00816080937A00809185
:1004E0007A00806880937A001092C100E091240124
:1004F000F091250182E08083E0912001F0912101BB
:1005000086E08083E0912201F091230192E89083BC
:1005100010922C01E0912801F09129018083E09153
:100520002601F0912701808180618083E09126017E
:10053000F0912701808188608083E0912601F0910D
:100540002701808180688083E0912601F091270156
:1005500080818F7D8083C0E0D0E041E050E062E1A7
:1005600071E084E191E00E9484000E945F004B01F1
:100570005C0184E6C82ED12CE12CF12C0E945F0096
:10058000681979098A099B09683E734081059105BC
:10059000A8F321E0C21AD108E108F10888EE880E1C
:1005A00083E0981EA11CB11CC114D104E104F10424
:1005B00029F7209791F20E94EE00882371F20E94A1
:1005C0000000CBCFE4E1F1E01382128288EE93E0E9
:1005D000A0E0B0E084839583A683B78384E091E0B4
:1005E0009183808385EC90E09587848784EC90E00C
:1005F0009787868780EC90E0918B808B81EC90E0F0
:10060000938B828B82EC90E0958B848B86EC90E0D0
:10061000978B868B118E128E138E148E0895EE0F8B
:0E062000FF1F0590F491E02D0994F894FFCF90
:10062E000000000024018400B1007101E200C0004E
:04063E00D4006D0077
:00000001FF
